{
  "contractName": "MedicalRecord",
  "abi": [
    {
      "inputs": [],
      "stateMutability": "nonpayable",
      "type": "constructor"
    },
    {
      "anonymous": false,
      "inputs": [
        {
          "indexed": false,
          "internalType": "address",
          "name": "_doctor",
          "type": "address"
        }
      ],
      "name": "createDoctorLog",
      "type": "event"
    },
    {
      "anonymous": false,
      "inputs": [
        {
          "indexed": false,
          "internalType": "address",
          "name": "_doctor",
          "type": "address"
        },
        {
          "indexed": false,
          "internalType": "address",
          "name": "_patient",
          "type": "address"
        }
      ],
      "name": "patientAddedByDoctorLog",
      "type": "event"
    },
    {
      "anonymous": false,
      "inputs": [
        {
          "indexed": false,
          "internalType": "address",
          "name": "_doctor",
          "type": "address"
        },
        {
          "indexed": false,
          "internalType": "address",
          "name": "_patient",
          "type": "address"
        }
      ],
      "name": "requestDoctorLog",
      "type": "event"
    },
    {
      "anonymous": false,
      "inputs": [
        {
          "indexed": false,
          "internalType": "address",
          "name": "_patient",
          "type": "address"
        },
        {
          "indexed": false,
          "internalType": "string",
          "name": "_hash",
          "type": "string"
        }
      ],
      "name": "verifiedRecordLog",
      "type": "event"
    },
    {
      "inputs": [
        {
          "internalType": "address",
          "name": "",
          "type": "address"
        }
      ],
      "name": "doctorProfile",
      "outputs": [
        {
          "internalType": "contract Doctor",
          "name": "",
          "type": "address"
        }
      ],
      "stateMutability": "view",
      "type": "function",
      "constant": true
    },
    {
      "inputs": [
        {
          "internalType": "address",
          "name": "",
          "type": "address"
        }
      ],
      "name": "patientProfile",
      "outputs": [
        {
          "internalType": "contract Patient",
          "name": "",
          "type": "address"
        }
      ],
      "stateMutability": "view",
      "type": "function",
      "constant": true
    },
    {
      "inputs": [
        {
          "internalType": "string",
          "name": "",
          "type": "string"
        }
      ],
      "name": "recordData",
      "outputs": [
        {
          "internalType": "address",
          "name": "doctor",
          "type": "address"
        },
        {
          "internalType": "address",
          "name": "patient",
          "type": "address"
        },
        {
          "internalType": "string",
          "name": "hash",
          "type": "string"
        },
        {
          "internalType": "string",
          "name": "encoding",
          "type": "string"
        },
        {
          "internalType": "bool",
          "name": "verified",
          "type": "bool"
        }
      ],
      "stateMutability": "view",
      "type": "function",
      "constant": true
    },
    {
      "inputs": [
        {
          "internalType": "string",
          "name": "_name",
          "type": "string"
        }
      ],
      "name": "registerAsPatient",
      "outputs": [
        {
          "internalType": "bool",
          "name": "",
          "type": "bool"
        }
      ],
      "stateMutability": "nonpayable",
      "type": "function"
    },
    {
      "inputs": [
        {
          "internalType": "address",
          "name": "_doctor",
          "type": "address"
        },
        {
          "internalType": "string",
          "name": "_name",
          "type": "string"
        },
        {
          "internalType": "string",
          "name": "_url",
          "type": "string"
        },
        {
          "internalType": "string",
          "name": "_metadataHash",
          "type": "string"
        }
      ],
      "name": "addDoctor",
      "outputs": [
        {
          "internalType": "bool",
          "name": "",
          "type": "bool"
        }
      ],
      "stateMutability": "nonpayable",
      "type": "function"
    },
    {
      "inputs": [
        {
          "internalType": "address",
          "name": "_doctor",
          "type": "address"
        }
      ],
      "name": "requestDoctor",
      "outputs": [
        {
          "internalType": "bool",
          "name": "",
          "type": "bool"
        }
      ],
      "stateMutability": "nonpayable",
      "type": "function"
    },
    {
      "inputs": [
        {
          "internalType": "address",
          "name": "_doctor",
          "type": "address"
        },
        {
          "internalType": "address",
          "name": "_patient",
          "type": "address"
        }
      ],
      "name": "doctorInPatient",
      "outputs": [
        {
          "internalType": "bool",
          "name": "",
          "type": "bool"
        }
      ],
      "stateMutability": "view",
      "type": "function",
      "constant": true
    },
    {
      "inputs": [
        {
          "internalType": "address",
          "name": "_patient",
          "type": "address"
        }
      ],
      "name": "addNewPatient",
      "outputs": [
        {
          "internalType": "bool",
          "name": "",
          "type": "bool"
        }
      ],
      "stateMutability": "nonpayable",
      "type": "function"
    },
    {
      "inputs": [
        {
          "internalType": "address",
          "name": "_patient",
          "type": "address"
        },
        {
          "internalType": "address",
          "name": "_doctor",
          "type": "address"
        }
      ],
      "name": "patientInDoctor",
      "outputs": [
        {
          "internalType": "bool",
          "name": "",
          "type": "bool"
        }
      ],
      "stateMutability": "view",
      "type": "function",
      "constant": true
    },
    {
      "inputs": [
        {
          "internalType": "address",
          "name": "_patient",
          "type": "address"
        },
        {
          "internalType": "string",
          "name": "_hash",
          "type": "string"
        },
        {
          "internalType": "string",
          "name": "_encoding",
          "type": "string"
        }
      ],
      "name": "addRecord",
      "outputs": [
        {
          "internalType": "bool",
          "name": "",
          "type": "bool"
        }
      ],
      "stateMutability": "nonpayable",
      "type": "function"
    },
    {
      "inputs": [
        {
          "internalType": "string",
          "name": "_hash",
          "type": "string"
        }
      ],
      "name": "verifyRecord",
      "outputs": [
        {
          "internalType": "bool",
          "name": "",
          "type": "bool"
        }
      ],
      "stateMutability": "nonpayable",
      "type": "function"
    },
    {
      "inputs": [
        {
          "internalType": "string",
          "name": "_hash",
          "type": "string"
        }
      ],
      "name": "getRecord",
      "outputs": [
        {
          "internalType": "address",
          "name": "",
          "type": "address"
        },
        {
          "internalType": "address",
          "name": "",
          "type": "address"
        },
        {
          "internalType": "string",
          "name": "",
          "type": "string"
        },
        {
          "internalType": "bool",
          "name": "",
          "type": "bool"
        }
      ],
      "stateMutability": "view",
      "type": "function",
      "constant": true
    },
    {
      "inputs": [
        {
          "internalType": "address",
          "name": "_patient",
          "type": "address"
        }
      ],
      "name": "getPatient",
      "outputs": [
        {
          "internalType": "string",
          "name": "",
          "type": "string"
        },
        {
          "internalType": "bool",
          "name": "",
          "type": "bool"
        }
      ],
      "stateMutability": "view",
      "type": "function",
      "constant": true
    },
    {
      "inputs": [
        {
          "internalType": "address",
          "name": "_doctor",
          "type": "address"
        }
      ],
      "name": "getDoctor",
      "outputs": [
        {
          "internalType": "string",
          "name": "",
          "type": "string"
        },
        {
          "internalType": "string",
          "name": "",
          "type": "string"
        },
        {
          "internalType": "string",
          "name": "",
          "type": "string"
        },
        {
          "internalType": "bool",
          "name": "",
          "type": "bool"
        },
        {
          "internalType": "bool",
          "name": "",
          "type": "bool"
        }
      ],
      "stateMutability": "view",
      "type": "function",
      "constant": true
    },
    {
      "inputs": [],
      "name": "switchActiveDoctor",
      "outputs": [],
      "stateMutability": "nonpayable",
      "type": "function"
    },
    {
      "inputs": [
        {
          "internalType": "address",
          "name": "_patient",
          "type": "address"
        }
      ],
      "name": "addrIsPatient",
      "outputs": [
        {
          "internalType": "bool",
          "name": "",
          "type": "bool"
        }
      ],
      "stateMutability": "view",
      "type": "function",
      "constant": true
    },
    {
      "inputs": [
        {
          "internalType": "address",
          "name": "_doctor",
          "type": "address"
        }
      ],
      "name": "addrIsDoctor",
      "outputs": [
        {
          "internalType": "bool",
          "name": "",
          "type": "bool"
        }
      ],
      "stateMutability": "view",
      "type": "function",
      "constant": true
    }
  ],
  "bytecode": "0x608060405234801561001057600080fd5b50336000806101000a81548173ffffffffffffffffffffffffffffffffffffffff021916908373ffffffffffffffffffffffffffffffffffffffff1602179055506147e5806100606000396000f3fe60806040523480156200001157600080fd5b5060043610620001245760003560e01c80638e5fd17f11620000b1578063c40e5824116200007b578063c40e58241462000393578063cdf9064514620003c9578063d47b41d514620003ff578063dc42929c1462000435578063fffff113146200046b5762000124565b80638e5fd17f14620002b657806390d7435014620002f0578063a2c580f01462000326578063b5368e20146200035c5762000124565b80633970b94111620000f35780633970b94114620002085780633bff98f5146200023e5780634ba1ec311462000274578063739dfe3114620002aa5762000124565b806310be6c33146200012957806311dd8845146200015f5780632f04e0641462000198578063356d6d5f14620001d2575b600080fd5b62000147600480360381019062000141919062002365565b620004a1565b60405162000156919062002af2565b60405180910390f35b6200017d600480360381019062000177919062002448565b62000633565b6040516200018f9493929190620029ff565b60405180910390f35b620001b66004803603810190620001b0919062002270565b6200086e565b604051620001c995949392919062002bf3565b60405180910390f35b620001f06004803603810190620001ea919062002270565b62000a92565b604051620001ff919062002af2565b60405180910390f35b62000226600480360381019062000220919062002270565b62000d25565b60405162000235919062002af2565b60405180910390f35b6200025c600480360381019062000256919062002270565b62000e0f565b6040516200026b919062002b2c565b60405180910390f35b6200029260048036038101906200028c91906200229c565b62000e42565b604051620002a1919062002af2565b60405180910390f35b620002b46200105d565b005b620002d46004803603810190620002ce919062002448565b62001261565b604051620002e795949392919062002a53565b60405180910390f35b6200030e600480360381019062000308919062002270565b6200141a565b6040516200031d919062002af2565b60405180910390f35b6200034460048036038101906200033e919062002270565b62001651565b60405162000353919062002b0f565b60405180910390f35b6200037a600480360381019062000374919062002270565b62001684565b6040516200038a92919062002b6d565b60405180910390f35b620003b16004803603810190620003ab919062002448565b6200189a565b604051620003c0919062002af2565b60405180910390f35b620003e76004803603810190620003e191906200229c565b620019d0565b604051620003f6919062002af2565b60405180910390f35b6200041d6004803603810190620004179190620022dd565b62001beb565b6040516200042c919062002af2565b60405180910390f35b6200045360048036038101906200044d919062002448565b62001ee2565b60405162000462919062002af2565b60405180910390f35b62000489600480360381019062000483919062002270565b62001fa8565b60405162000498919062002af2565b60405180910390f35b60003373ffffffffffffffffffffffffffffffffffffffff1660008054906101000a900473ffffffffffffffffffffffffffffffffffffffff1673ffffffffffffffffffffffffffffffffffffffff161462000534576040517f08c379a00000000000000000000000000000000000000000000000000000000081526004016200052b9062002ccb565b60405180910390fd5b838383604051620005459062002092565b620005539392919062002ba1565b604051809103906000f08015801562000570573d6000803e3d6000fd5b50600160008773ffffffffffffffffffffffffffffffffffffffff1673ffffffffffffffffffffffffffffffffffffffff16815260200190815260200160002060006101000a81548173ffffffffffffffffffffffffffffffffffffffff021916908373ffffffffffffffffffffffffffffffffffffffff1602179055507f39f915762fdc46bcc32e44b92eacca5aa8ead96074c18b5c5120a8a7c29ee499856040516200061f9190620029b5565b60405180910390a160019050949350505050565b600080606060008073ffffffffffffffffffffffffffffffffffffffff166003866040516200066391906200299c565b908152602001604051809103902060000160009054906101000a900473ffffffffffffffffffffffffffffffffffffffff1673ffffffffffffffffffffffffffffffffffffffff161415620006ef576040517f08c379a0000000000000000000000000000000000000000000000000000000008152600401620006e69062002d31565b60405180910390fd5b6003856040516200070191906200299c565b908152602001604051809103902060000160009054906101000a900473ffffffffffffffffffffffffffffffffffffffff166003866040516200074591906200299c565b908152602001604051809103902060010160009054906101000a900473ffffffffffffffffffffffffffffffffffffffff166003876040516200078991906200299c565b9081526020016040518091039020600301600388604051620007ac91906200299c565b908152602001604051809103902060040160009054906101000a900460ff16818054620007d99062002f1c565b80601f0160208091040260200160405190810160405280929190818152602001828054620008079062002f1c565b8015620008585780601f106200082c5761010080835404028352916020019162000858565b820191906000526020600020905b8154815290600101906020018083116200083a57829003601f168201915b5050505050915093509350935093509193509193565b6060806060600080600160008773ffffffffffffffffffffffffffffffffffffffff1673ffffffffffffffffffffffffffffffffffffffff16815260200190815260200160002060009054906101000a900473ffffffffffffffffffffffffffffffffffffffff1673ffffffffffffffffffffffffffffffffffffffff166302fb0c5e6040518163ffffffff1660e01b815260040160206040518083038186803b1580156200091c57600080fd5b505afa15801562000931573d6000803e3d6000fd5b505050506040513d601f19601f820116820180604052508101906200095791906200241c565b62000999576040517f08c379a0000000000000000000000000000000000000000000000000000000008152600401620009909062002d97565b60405180910390fd5b600160008773ffffffffffffffffffffffffffffffffffffffff1673ffffffffffffffffffffffffffffffffffffffff16815260200190815260200160002060009054906101000a900473ffffffffffffffffffffffffffffffffffffffff1673ffffffffffffffffffffffffffffffffffffffff166310f0addf6040518163ffffffff1660e01b815260040160006040518083038186803b15801562000a3f57600080fd5b505afa15801562000a54573d6000803e3d6000fd5b505050506040513d6000823e3d601f19601f8201168201806040525081019062000a7f9190620024e7565b9450945094509450945091939590929450565b600062000a9f3362000d25565b62000ae1576040517f08c379a000000000000000000000000000000000000000000000000000000000815260040162000ad89062002d0f565b60405180910390fd5b81600260008273ffffffffffffffffffffffffffffffffffffffff1673ffffffffffffffffffffffffffffffffffffffff16815260200190815260200160002060009054906101000a900473ffffffffffffffffffffffffffffffffffffffff1673ffffffffffffffffffffffffffffffffffffffff16637a7f02cb336040518263ffffffff1660e01b815260040162000b7c9190620029b5565b60206040518083038186803b15801562000b9557600080fd5b505afa15801562000baa573d6000803e3d6000fd5b505050506040513d601f19601f8201168201806040525081019062000bd091906200241c565b62000c12576040517f08c379a000000000000000000000000000000000000000000000000000000000815260040162000c099062002c87565b60405180910390fd5b600160003373ffffffffffffffffffffffffffffffffffffffff1673ffffffffffffffffffffffffffffffffffffffff16815260200190815260200160002060009054906101000a900473ffffffffffffffffffffffffffffffffffffffff1673ffffffffffffffffffffffffffffffffffffffff16636d263ceb846040518263ffffffff1660e01b815260040162000cac9190620029b5565b600060405180830381600087803b15801562000cc757600080fd5b505af115801562000cdc573d6000803e3d6000fd5b505050507f1dfe7430efc4e0e3b9ee0e104c83b2170e1d9ad425d0f4db667c1aa305222035338460405162000d13929190620029d2565b60405180910390a16001915050919050565b6000600160008373ffffffffffffffffffffffffffffffffffffffff1673ffffffffffffffffffffffffffffffffffffffff16815260200190815260200160002060009054906101000a900473ffffffffffffffffffffffffffffffffffffffff1673ffffffffffffffffffffffffffffffffffffffff166322f3e2d46040518163ffffffff1660e01b815260040160206040518083038186803b15801562000dcd57600080fd5b505afa15801562000de2573d6000803e3d6000fd5b505050506040513d601f19601f8201168201806040525081019062000e0891906200241c565b9050919050565b60026020528060005260406000206000915054906101000a900473ffffffffffffffffffffffffffffffffffffffff1681565b6000600260008373ffffffffffffffffffffffffffffffffffffffff1673ffffffffffffffffffffffffffffffffffffffff16815260200190815260200160002060009054906101000a900473ffffffffffffffffffffffffffffffffffffffff1673ffffffffffffffffffffffffffffffffffffffff166322f3e2d46040518163ffffffff1660e01b815260040160206040518083038186803b15801562000eea57600080fd5b505afa15801562000eff573d6000803e3d6000fd5b505050506040513d601f19601f8201168201806040525081019062000f2591906200241c565b62000f67576040517f08c379a000000000000000000000000000000000000000000000000000000000815260040162000f5e9062002ced565b60405180910390fd5b600260008373ffffffffffffffffffffffffffffffffffffffff1673ffffffffffffffffffffffffffffffffffffffff16815260200190815260200160002060009054906101000a900473ffffffffffffffffffffffffffffffffffffffff1673ffffffffffffffffffffffffffffffffffffffff16637a7f02cb846040518263ffffffff1660e01b8152600401620010019190620029b5565b60206040518083038186803b1580156200101a57600080fd5b505afa1580156200102f573d6000803e3d6000fd5b505050506040513d601f19601f820116820180604052508101906200105591906200241c565b905092915050565b620010683362000d25565b620010aa576040517f08c379a0000000000000000000000000000000000000000000000000000000008152600401620010a19062002d0f565b60405180910390fd5b6000600160003373ffffffffffffffffffffffffffffffffffffffff1673ffffffffffffffffffffffffffffffffffffffff16815260200190815260200160002060009054906101000a900473ffffffffffffffffffffffffffffffffffffffff1673ffffffffffffffffffffffffffffffffffffffff1663353ddc8e6040518163ffffffff1660e01b815260040160206040518083038186803b1580156200115257600080fd5b505afa15801562001167573d6000803e3d6000fd5b505050506040513d601f19601f820116820180604052508101906200118d91906200241c565b159050600160003373ffffffffffffffffffffffffffffffffffffffff1673ffffffffffffffffffffffffffffffffffffffff16815260200190815260200160002060009054906101000a900473ffffffffffffffffffffffffffffffffffffffff1673ffffffffffffffffffffffffffffffffffffffff16636fdca5e0826040518263ffffffff1660e01b81526004016200122a919062002af2565b600060405180830381600087803b1580156200124557600080fd5b505af11580156200125a573d6000803e3d6000fd5b5050505050565b6003818051602081018201805184825260208301602085012081835280955050505050506000915090508060000160009054906101000a900473ffffffffffffffffffffffffffffffffffffffff16908060010160009054906101000a900473ffffffffffffffffffffffffffffffffffffffff1690806002018054620012e89062002f1c565b80601f0160208091040260200160405190810160405280929190818152602001828054620013169062002f1c565b8015620013675780601f106200133b5761010080835404028352916020019162001367565b820191906000526020600020905b8154815290600101906020018083116200134957829003601f168201915b5050505050908060030180546200137e9062002f1c565b80601f0160208091040260200160405190810160405280929190818152602001828054620013ac9062002f1c565b8015620013fd5780601f10620013d157610100808354040283529160200191620013fd565b820191906000526020600020905b815481529060010190602001808311620013df57829003601f168201915b5050505050908060040160009054906101000a900460ff16905085565b6000600160008373ffffffffffffffffffffffffffffffffffffffff1673ffffffffffffffffffffffffffffffffffffffff16815260200190815260200160002060009054906101000a900473ffffffffffffffffffffffffffffffffffffffff1673ffffffffffffffffffffffffffffffffffffffff1663353ddc8e6040518163ffffffff1660e01b815260040160206040518083038186803b158015620014c257600080fd5b505afa158015620014d7573d6000803e3d6000fd5b505050506040513d601f19601f82011682018060405250810190620014fd91906200241c565b6200153f576040517f08c379a0000000000000000000000000000000000000000000000000000000008152600401620015369062002d75565b60405180910390fd5b600260003373ffffffffffffffffffffffffffffffffffffffff1673ffffffffffffffffffffffffffffffffffffffff16815260200190815260200160002060009054906101000a900473ffffffffffffffffffffffffffffffffffffffff1673ffffffffffffffffffffffffffffffffffffffff166390d74350836040518263ffffffff1660e01b8152600401620015d99190620029b5565b600060405180830381600087803b158015620015f457600080fd5b505af115801562001609573d6000803e3d6000fd5b505050507f57757206b5d5d08b463a5b93e50a6eb77042ae462867f664dc78a6d48a3111f0823360405162001640929190620029d2565b60405180910390a160019050919050565b60016020528060005260406000206000915054906101000a900473ffffffffffffffffffffffffffffffffffffffff1681565b60606000600260008473ffffffffffffffffffffffffffffffffffffffff1673ffffffffffffffffffffffffffffffffffffffff16815260200190815260200160002060009054906101000a900473ffffffffffffffffffffffffffffffffffffffff1673ffffffffffffffffffffffffffffffffffffffff166302fb0c5e6040518163ffffffff1660e01b815260040160206040518083038186803b1580156200172e57600080fd5b505afa15801562001743573d6000803e3d6000fd5b505050506040513d601f19601f820116820180604052508101906200176991906200241c565b620017ab576040517f08c379a0000000000000000000000000000000000000000000000000000000008152600401620017a29062002ca9565b60405180910390fd5b600260008473ffffffffffffffffffffffffffffffffffffffff1673ffffffffffffffffffffffffffffffffffffffff16815260200190815260200160002060009054906101000a900473ffffffffffffffffffffffffffffffffffffffff1673ffffffffffffffffffffffffffffffffffffffff166310f0addf6040518163ffffffff1660e01b815260040160006040518083038186803b1580156200185157600080fd5b505afa15801562001866573d6000803e3d6000fd5b505050506040513d6000823e3d601f19601f820116820180604052508101906200189191906200248d565b91509150915091565b60003373ffffffffffffffffffffffffffffffffffffffff16600383604051620018c591906200299c565b908152602001604051809103902060010160009054906101000a900473ffffffffffffffffffffffffffffffffffffffff1673ffffffffffffffffffffffffffffffffffffffff161462001950576040517f08c379a0000000000000000000000000000000000000000000000000000000008152600401620019479062002c65565b60405180910390fd5b60016003836040516200196491906200299c565b908152602001604051809103902060040160006101000a81548160ff0219169083151502179055507fcca31d3a68d23ccfafcba768219ad09ad7b6b3e1ae00cb073646e7ca5c8c846d3383604051620019bf92919062002abe565b60405180910390a160019050919050565b6000600160008373ffffffffffffffffffffffffffffffffffffffff1673ffffffffffffffffffffffffffffffffffffffff16815260200190815260200160002060009054906101000a900473ffffffffffffffffffffffffffffffffffffffff1673ffffffffffffffffffffffffffffffffffffffff166322f3e2d46040518163ffffffff1660e01b815260040160206040518083038186803b15801562001a7857600080fd5b505afa15801562001a8d573d6000803e3d6000fd5b505050506040513d601f19601f8201168201806040525081019062001ab391906200241c565b62001af5576040517f08c379a000000000000000000000000000000000000000000000000000000000815260040162001aec9062002d53565b60405180910390fd5b600160008373ffffffffffffffffffffffffffffffffffffffff1673ffffffffffffffffffffffffffffffffffffffff16815260200190815260200160002060009054906101000a900473ffffffffffffffffffffffffffffffffffffffff1673ffffffffffffffffffffffffffffffffffffffff16638f9c79ed846040518263ffffffff1660e01b815260040162001b8f9190620029b5565b60206040518083038186803b15801562001ba857600080fd5b505afa15801562001bbd573d6000803e3d6000fd5b505050506040513d601f19601f8201168201806040525081019062001be391906200241c565b905092915050565b600062001bf83362000d25565b62001c3a576040517f08c379a000000000000000000000000000000000000000000000000000000000815260040162001c319062002d0f565b60405180910390fd5b83600260008273ffffffffffffffffffffffffffffffffffffffff1673ffffffffffffffffffffffffffffffffffffffff16815260200190815260200160002060009054906101000a900473ffffffffffffffffffffffffffffffffffffffff1673ffffffffffffffffffffffffffffffffffffffff16637a7f02cb336040518263ffffffff1660e01b815260040162001cd59190620029b5565b60206040518083038186803b15801562001cee57600080fd5b505afa15801562001d03573d6000803e3d6000fd5b505050506040513d601f19601f8201168201806040525081019062001d2991906200241c565b62001d6b576040517f08c379a000000000000000000000000000000000000000000000000000000000815260040162001d629062002c87565b60405180910390fd5b60006040518060a001604052803373ffffffffffffffffffffffffffffffffffffffff1681526020018773ffffffffffffffffffffffffffffffffffffffff1681526020018681526020018581526020016000151581525090508060038660405162001dd891906200299c565b908152602001604051809103902060008201518160000160006101000a81548173ffffffffffffffffffffffffffffffffffffffff021916908373ffffffffffffffffffffffffffffffffffffffff16021790555060208201518160010160006101000a81548173ffffffffffffffffffffffffffffffffffffffff021916908373ffffffffffffffffffffffffffffffffffffffff160217905550604082015181600201908051906020019062001e92929190620020a0565b50606082015181600301908051906020019062001eb1929190620020a0565b5060808201518160040160006101000a81548160ff0219169083151502179055509050506001925050509392505050565b6000808260405162001ef49062002131565b62001f00919062002b49565b604051809103906000f08015801562001f1d573d6000803e3d6000fd5b50905080600260003373ffffffffffffffffffffffffffffffffffffffff1673ffffffffffffffffffffffffffffffffffffffff16815260200190815260200160002060006101000a81548173ffffffffffffffffffffffffffffffffffffffff021916908373ffffffffffffffffffffffffffffffffffffffff1602179055506001915050919050565b6000600260008373ffffffffffffffffffffffffffffffffffffffff1673ffffffffffffffffffffffffffffffffffffffff16815260200190815260200160002060009054906101000a900473ffffffffffffffffffffffffffffffffffffffff1673ffffffffffffffffffffffffffffffffffffffff166322f3e2d46040518163ffffffff1660e01b815260040160206040518083038186803b1580156200205057600080fd5b505afa15801562002065573d6000803e3d6000fd5b505050506040513d601f19601f820116820180604052508101906200208b91906200241c565b9050919050565b610e378062002ff683390190565b828054620020ae9062002f1c565b90600052602060002090601f016020900481019282620020d257600085556200211e565b82601f10620020ed57805160ff19168380011785556200211e565b828001600101855582156200211e579182015b828111156200211d57825182559160200191906001019062002100565b5b5090506200212d91906200213f565b5090565b6109838062003e2d83390190565b5b808211156200215a57600081600090555060010162002140565b5090565b6000620021756200216f8462002ded565b62002db9565b9050828152602081018484840111156200218e57600080fd5b6200219b84828562002ed7565b509392505050565b6000620021ba620021b48462002ded565b62002db9565b905082815260208101848484011115620021d357600080fd5b620021e084828562002ee6565b509392505050565b600081359050620021f98162002fc1565b92915050565b600081519050620022108162002fdb565b92915050565b600082601f8301126200222857600080fd5b81356200223a8482602086016200215e565b91505092915050565b600082601f8301126200225557600080fd5b815162002267848260208601620021a3565b91505092915050565b6000602082840312156200228357600080fd5b60006200229384828501620021e8565b91505092915050565b60008060408385031215620022b057600080fd5b6000620022c085828601620021e8565b9250506020620022d385828601620021e8565b9150509250929050565b600080600060608486031215620022f357600080fd5b60006200230386828701620021e8565b935050602084013567ffffffffffffffff8111156200232157600080fd5b6200232f8682870162002216565b925050604084013567ffffffffffffffff8111156200234d57600080fd5b6200235b8682870162002216565b9150509250925092565b600080600080608085870312156200237c57600080fd5b60006200238c87828801620021e8565b945050602085013567ffffffffffffffff811115620023aa57600080fd5b620023b88782880162002216565b935050604085013567ffffffffffffffff811115620023d657600080fd5b620023e48782880162002216565b925050606085013567ffffffffffffffff8111156200240257600080fd5b620024108782880162002216565b91505092959194509250565b6000602082840312156200242f57600080fd5b60006200243f84828501620021ff565b91505092915050565b6000602082840312156200245b57600080fd5b600082013567ffffffffffffffff8111156200247657600080fd5b620024848482850162002216565b91505092915050565b60008060408385031215620024a157600080fd5b600083015167ffffffffffffffff811115620024bc57600080fd5b620024ca8582860162002243565b9250506020620024dd85828601620021ff565b9150509250929050565b600080600080600060a086880312156200250057600080fd5b600086015167ffffffffffffffff8111156200251b57600080fd5b620025298882890162002243565b955050602086015167ffffffffffffffff8111156200254757600080fd5b620025558882890162002243565b945050604086015167ffffffffffffffff8111156200257357600080fd5b620025818882890162002243565b93505060606200259488828901620021ff565b9250506080620025a788828901620021ff565b9150509295509295909350565b620025bf8162002e47565b82525050565b620025d08162002e5b565b82525050565b620025e18162002e87565b82525050565b620025f28162002eaf565b82525050565b6000620026058262002e20565b62002611818562002e2b565b93506200262381856020860162002ee6565b6200262e8162002fb0565b840191505092915050565b6000620026468262002e20565b62002652818562002e3c565b93506200266481856020860162002ee6565b80840191505092915050565b60006200267f60268362002e2b565b91507f4a757374207468652070617469656e742063616e20766572696679207468652060008301527f7265636f726400000000000000000000000000000000000000000000000000006020830152604082019050919050565b6000620026e760198362002e2b565b91507f54686520646f63746f72206973206e6f7420616c6c6f776564000000000000006000830152602082019050919050565b600062002729602c8362002e2b565b91507f5468652070617469656e7420646f6573206e6f74206578697374206f7220697360008301527f20646561637469766174656400000000000000000000000000000000000000006020830152604082019050919050565b600062002791601b8362002e2b565b91507f5468652063616c6c6572206973206e6f74207468652061646d696e00000000006000830152602082019050919050565b6000620027d3601d8362002e2b565b91507f5468652070617469656e74206d757374206265206163746976617465640000006000830152602082019050919050565b600062002815601a8362002e2b565b91507f54686520646f63746f72206973206e6f206163746976617465640000000000006000830152602082019050919050565b60006200285760198362002e2b565b91507f546865207265636f726420646f6573206e6f74206578697374000000000000006000830152602082019050919050565b600062002899601c8362002e2b565b91507f54686520646f63746f72206d75737420626520616374697661746564000000006000830152602082019050919050565b6000620028db60248362002e2b565b91507f54686520646f63746f7220697320636c6f73656420746f206e6577207061746960008301527f656e7473000000000000000000000000000000000000000000000000000000006020830152604082019050919050565b600062002943602b8362002e2b565b91507f54686520646f63746f7220646f6573206e6f74206578697374206f722069732060008301527f64656163746976617465640000000000000000000000000000000000000000006020830152604082019050919050565b6000620029aa828462002639565b915081905092915050565b6000602082019050620029cc6000830184620025b4565b92915050565b6000604082019050620029e96000830185620025b4565b620029f86020830184620025b4565b9392505050565b600060808201905062002a166000830187620025b4565b62002a256020830186620025b4565b818103604083015262002a398185620025f8565b905062002a4a6060830184620025c5565b95945050505050565b600060a08201905062002a6a6000830188620025b4565b62002a796020830187620025b4565b818103604083015262002a8d8186620025f8565b9050818103606083015262002aa38185620025f8565b905062002ab46080830184620025c5565b9695505050505050565b600060408201905062002ad56000830185620025b4565b818103602083015262002ae98184620025f8565b90509392505050565b600060208201905062002b096000830184620025c5565b92915050565b600060208201905062002b266000830184620025d6565b92915050565b600060208201905062002b436000830184620025e7565b92915050565b6000602082019050818103600083015262002b658184620025f8565b905092915050565b6000604082019050818103600083015262002b898185620025f8565b905062002b9a6020830184620025c5565b9392505050565b6000606082019050818103600083015262002bbd8186620025f8565b9050818103602083015262002bd38185620025f8565b9050818103604083015262002be98184620025f8565b9050949350505050565b600060a082019050818103600083015262002c0f8188620025f8565b9050818103602083015262002c258187620025f8565b9050818103604083015262002c3b8186620025f8565b905062002c4c6060830185620025c5565b62002c5b6080830184620025c5565b9695505050505050565b6000602082019050818103600083015262002c808162002670565b9050919050565b6000602082019050818103600083015262002ca281620026d8565b9050919050565b6000602082019050818103600083015262002cc4816200271a565b9050919050565b6000602082019050818103600083015262002ce68162002782565b9050919050565b6000602082019050818103600083015262002d0881620027c4565b9050919050565b6000602082019050818103600083015262002d2a8162002806565b9050919050565b6000602082019050818103600083015262002d4c8162002848565b9050919050565b6000602082019050818103600083015262002d6e816200288a565b9050919050565b6000602082019050818103600083015262002d9081620028cc565b9050919050565b6000602082019050818103600083015262002db28162002934565b9050919050565b6000604051905081810181811067ffffffffffffffff8211171562002de35762002de262002f81565b5b8060405250919050565b600067ffffffffffffffff82111562002e0b5762002e0a62002f81565b5b601f19601f8301169050602081019050919050565b600081519050919050565b600082825260208201905092915050565b600081905092915050565b600062002e548262002e67565b9050919050565b60008115159050919050565b600073ffffffffffffffffffffffffffffffffffffffff82169050919050565b600062002e948262002e9b565b9050919050565b600062002ea88262002e67565b9050919050565b600062002ebc8262002ec3565b9050919050565b600062002ed08262002e67565b9050919050565b82818337600083830152505050565b60005b8381101562002f0657808201518184015260208101905062002ee9565b8381111562002f16576000848401525b50505050565b6000600282049050600182168062002f3557607f821691505b6020821081141562002f4c5762002f4b62002f52565b5b50919050565b7f4e487b7100000000000000000000000000000000000000000000000000000000600052602260045260246000fd5b7f4e487b7100000000000000000000000000000000000000000000000000000000600052604160045260246000fd5b6000601f19601f8301169050919050565b62002fcc8162002e47565b811462002fd857600080fd5b50565b62002fe68162002e5b565b811462002ff257600080fd5b5056fe60806040523480156200001157600080fd5b5060405162000e3738038062000e378339818101604052810190620000379190620001e3565b82600090805190602001906200004f929190620000c1565b50816001908051906020019062000068929190620000c1565b50806002908051906020019062000081929190620000c1565b506000600360006101000a81548160ff0219169083151502179055506001600360016101000a81548160ff021916908315150217905550505050620003b5565b828054620000cf9062000321565b90600052602060002090601f016020900481019282620000f357600085556200013f565b82601f106200010e57805160ff19168380011785556200013f565b828001600101855582156200013f579182015b828111156200013e57825182559160200191906001019062000121565b5b5090506200014e919062000152565b5090565b5b808211156200016d57600081600090555060010162000153565b5090565b6000620001886200018284620002b8565b62000284565b905082815260208101848484011115620001a157600080fd5b620001ae848285620002eb565b509392505050565b600082601f830112620001c857600080fd5b8151620001da84826020860162000171565b91505092915050565b600080600060608486031215620001f957600080fd5b600084015167ffffffffffffffff8111156200021457600080fd5b6200022286828701620001b6565b935050602084015167ffffffffffffffff8111156200024057600080fd5b6200024e86828701620001b6565b925050604084015167ffffffffffffffff8111156200026c57600080fd5b6200027a86828701620001b6565b9150509250925092565b6000604051905081810181811067ffffffffffffffff82111715620002ae57620002ad62000386565b5b8060405250919050565b600067ffffffffffffffff821115620002d657620002d562000386565b5b601f19601f8301169050602081019050919050565b60005b838110156200030b578082015181840152602081019050620002ee565b838111156200031b576000848401525b50505050565b600060028204905060018216806200033a57607f821691505b6020821081141562000351576200035062000357565b5b50919050565b7f4e487b7100000000000000000000000000000000000000000000000000000000600052602260045260246000fd5b7f4e487b7100000000000000000000000000000000000000000000000000000000600052604160045260246000fd5b610a7280620003c56000396000f3fe608060405234801561001057600080fd5b50600436106100cf5760003560e01c8063353ddc8e1161008c5780636fdca5e0116100665780636fdca5e0146101f45780638f9c79ed14610210578063c5a1d7f014610240578063fcfff16f1461025e576100cf565b8063353ddc8e1461019c5780635600f04f146101ba5780636d263ceb146101d8576100cf565b806302513ed2146100d457806302fb0c5e146100f057806306fdde031461010e5780630869cfbc1461012c57806310f0addf1461015c57806322f3e2d41461017e575b600080fd5b6100ee60048036038101906100e991906107d0565b61027c565b005b6100f86102d7565b604051610105919061086a565b60405180910390f35b6101166102ea565b6040516101239190610885565b60405180910390f35b610146600480360381019061014191906107d0565b610378565b604051610153919061086a565b60405180910390f35b610164610398565b6040516101759594939291906108a7565b60405180910390f35b61018661057b565b604051610193919061086a565b60405180910390f35b6101a4610592565b6040516101b1919061086a565b60405180910390f35b6101c26105a9565b6040516101cf9190610885565b60405180910390f35b6101f260048036038101906101ed91906107d0565b610637565b005b61020e600480360381019061020991906107f9565b610692565b005b61022a600480360381019061022591906107d0565b6106af565b604051610237919061086a565b60405180910390f35b610248610705565b6040516102559190610885565b60405180910390f35b610266610793565b604051610273919061086a565b60405180910390f35b6000600460008373ffffffffffffffffffffffffffffffffffffffff1673ffffffffffffffffffffffffffffffffffffffff16815260200190815260200160002060006101000a81548160ff02191690831515021790555050565b600360019054906101000a900460ff1681565b600080546102f79061099c565b80601f01602080910402602001604051908101604052809291908181526020018280546103239061099c565b80156103705780601f1061034557610100808354040283529160200191610370565b820191906000526020600020905b81548152906001019060200180831161035357829003601f168201915b505050505081565b60046020528060005260406000206000915054906101000a900460ff1681565b6060806060600080600060016002600360009054906101000a900460ff16600360019054906101000a900460ff168480546103d29061099c565b80601f01602080910402602001604051908101604052809291908181526020018280546103fe9061099c565b801561044b5780601f106104205761010080835404028352916020019161044b565b820191906000526020600020905b81548152906001019060200180831161042e57829003601f168201915b5050505050945083805461045e9061099c565b80601f016020809104026020016040519081016040528092919081815260200182805461048a9061099c565b80156104d75780601f106104ac576101008083540402835291602001916104d7565b820191906000526020600020905b8154815290600101906020018083116104ba57829003601f168201915b505050505093508280546104ea9061099c565b80601f01602080910402602001604051908101604052809291908181526020018280546105169061099c565b80156105635780601f1061053857610100808354040283529160200191610563565b820191906000526020600020905b81548152906001019060200180831161054657829003601f168201915b50505050509250945094509450945094509091929394565b6000600360019054906101000a900460ff16905090565b6000600360009054906101000a900460ff16905090565b600180546105b69061099c565b80601f01602080910402602001604051908101604052809291908181526020018280546105e29061099c565b801561062f5780601f106106045761010080835404028352916020019161062f565b820191906000526020600020905b81548152906001019060200180831161061257829003601f168201915b505050505081565b6001600460008373ffffffffffffffffffffffffffffffffffffffff1673ffffffffffffffffffffffffffffffffffffffff16815260200190815260200160002060006101000a81548160ff02191690831515021790555050565b80600360006101000a81548160ff02191690831515021790555050565b6000600460008373ffffffffffffffffffffffffffffffffffffffff1673ffffffffffffffffffffffffffffffffffffffff16815260200190815260200160002060009054906101000a900460ff169050919050565b600280546107129061099c565b80601f016020809104026020016040519081016040528092919081815260200182805461073e9061099c565b801561078b5780601f106107605761010080835404028352916020019161078b565b820191906000526020600020905b81548152906001019060200180831161076e57829003601f168201915b505050505081565b600360009054906101000a900460ff1681565b6000813590506107b581610a0e565b92915050565b6000813590506107ca81610a25565b92915050565b6000602082840312156107e257600080fd5b60006107f0848285016107a6565b91505092915050565b60006020828403121561080b57600080fd5b6000610819848285016107bb565b91505092915050565b61082b8161093d565b82525050565b600061083c8261090f565b610846818561091a565b9350610856818560208601610969565b61085f816109fd565b840191505092915050565b600060208201905061087f6000830184610822565b92915050565b6000602082019050818103600083015261089f8184610831565b905092915050565b600060a08201905081810360008301526108c18188610831565b905081810360208301526108d58187610831565b905081810360408301526108e98186610831565b90506108f86060830185610822565b6109056080830184610822565b9695505050505050565b600081519050919050565b600082825260208201905092915050565b600061093682610949565b9050919050565b60008115159050919050565b600073ffffffffffffffffffffffffffffffffffffffff82169050919050565b60005b8381101561098757808201518184015260208101905061096c565b83811115610996576000848401525b50505050565b600060028204905060018216806109b457607f821691505b602082108114156109c8576109c76109ce565b5b50919050565b7f4e487b7100000000000000000000000000000000000000000000000000000000600052602260045260246000fd5b6000601f19601f8301169050919050565b610a178161092b565b8114610a2257600080fd5b50565b610a2e8161093d565b8114610a3957600080fd5b5056fea2646970667358221220220ed050dfdb5db7af8f5d8ed7da20cc28d6092f0eb9584b21fee3358825f23664736f6c6343000800003360806040523480156200001157600080fd5b506040516200098338038062000983833981810160405281019062000037919062000193565b80600090805190602001906200004f92919062000071565b5060018060006101000a81548160ff0219169083151502179055505062000309565b8280546200007f9062000275565b90600052602060002090601f016020900481019282620000a35760008555620000ef565b82601f10620000be57805160ff1916838001178555620000ef565b82800160010185558215620000ef579182015b82811115620000ee578251825591602001919060010190620000d1565b5b509050620000fe919062000102565b5090565b5b808211156200011d57600081600090555060010162000103565b5090565b60006200013862000132846200020c565b620001d8565b9050828152602081018484840111156200015157600080fd5b6200015e8482856200023f565b509392505050565b600082601f8301126200017857600080fd5b81516200018a84826020860162000121565b91505092915050565b600060208284031215620001a657600080fd5b600082015167ffffffffffffffff811115620001c157600080fd5b620001cf8482850162000166565b91505092915050565b6000604051905081810181811067ffffffffffffffff82111715620002025762000201620002da565b5b8060405250919050565b600067ffffffffffffffff8211156200022a5762000229620002da565b5b601f19601f8301169050602081019050919050565b60005b838110156200025f57808201518184015260208101905062000242565b838111156200026f576000848401525b50505050565b600060028204905060018216806200028e57607f821691505b60208210811415620002a557620002a4620002ab565b5b50919050565b7f4e487b7100000000000000000000000000000000000000000000000000000000600052602260045260246000fd5b7f4e487b7100000000000000000000000000000000000000000000000000000000600052604160045260246000fd5b61066a80620003196000396000f3fe608060405234801561001057600080fd5b50600436106100885760003560e01c806322f3e2d41161005b57806322f3e2d4146101045780637a7f02cb1461012257806390d7435014610152578063e95472151461016e57610088565b806302fb0c5e1461008d5780630416af27146100ab57806306fdde03146100c757806310f0addf146100e5575b600080fd5b61009561019e565b6040516100a291906104b1565b60405180910390f35b6100c560048036038101906100c09190610440565b6101b1565b005b6100cf61020c565b6040516100dc91906104cc565b60405180910390f35b6100ed61029a565b6040516100fb9291906104ee565b60405180910390f35b61010c610343565b60405161011991906104b1565b60405180910390f35b61013c60048036038101906101379190610440565b61035a565b60405161014991906104b1565b60405180910390f35b61016c60048036038101906101679190610440565b6103b0565b005b61018860048036038101906101839190610440565b61040b565b60405161019591906104b1565b60405180910390f35b600160009054906101000a900460ff1681565b6000600260008373ffffffffffffffffffffffffffffffffffffffff1673ffffffffffffffffffffffffffffffffffffffff16815260200190815260200160002060006101000a81548160ff02191690831515021790555050565b60008054610219906105ab565b80601f0160208091040260200160405190810160405280929190818152602001828054610245906105ab565b80156102925780601f1061026757610100808354040283529160200191610292565b820191906000526020600020905b81548152906001019060200180831161027557829003601f168201915b505050505081565b6060600080600160009054906101000a900460ff168180546102bb906105ab565b80601f01602080910402602001604051908101604052809291908181526020018280546102e7906105ab565b80156103345780601f1061030957610100808354040283529160200191610334565b820191906000526020600020905b81548152906001019060200180831161031757829003601f168201915b50505050509150915091509091565b6000600160009054906101000a900460ff16905090565b6000600260008373ffffffffffffffffffffffffffffffffffffffff1673ffffffffffffffffffffffffffffffffffffffff16815260200190815260200160002060009054906101000a900460ff169050919050565b6001600260008373ffffffffffffffffffffffffffffffffffffffff1673ffffffffffffffffffffffffffffffffffffffff16815260200190815260200160002060006101000a81548160ff02191690831515021790555050565b60026020528060005260406000206000915054906101000a900460ff1681565b60008135905061043a8161061d565b92915050565b60006020828403121561045257600080fd5b60006104608482850161042b565b91505092915050565b6104728161054c565b82525050565b60006104838261051e565b61048d8185610529565b935061049d818560208601610578565b6104a68161060c565b840191505092915050565b60006020820190506104c66000830184610469565b92915050565b600060208201905081810360008301526104e68184610478565b905092915050565b600060408201905081810360008301526105088185610478565b90506105176020830184610469565b9392505050565b600081519050919050565b600082825260208201905092915050565b600061054582610558565b9050919050565b60008115159050919050565b600073ffffffffffffffffffffffffffffffffffffffff82169050919050565b60005b8381101561059657808201518184015260208101905061057b565b838111156105a5576000848401525b50505050565b600060028204905060018216806105c357607f821691505b602082108114156105d7576105d66105dd565b5b50919050565b7f4e487b7100000000000000000000000000000000000000000000000000000000600052602260045260246000fd5b6000601f19601f8301169050919050565b6106268161053a565b811461063157600080fd5b5056fea26469706673582212205e95f9cd6fe28f2b5ae10432dd3163bc7f2c75189a3e7ea018e798ec3686777b64736f6c63430008000033a264697066735822122088006006c8a2a26edf100711953604e0f461b7e9e8b79a9997ec4b2b5c98678664736f6c63430008000033",
  "immutableReferences": {},
  "source": "pragma solidity ^0.8.0;\n\n/// @author Jaime Caso\n/// @title A Electronic Medical Record System\ncontract MedicalRecord{\n\n    address private owner;\n\n    struct Record {\n        address doctor;\n        address patient;\n        string hash;\n        string encoding;\n        bool verified;\n    }\n\n    // Roles\n    mapping(address => Doctor) public doctorProfile;\n    mapping(address => Patient) public patientProfile;\n    // Records\n    mapping(string => Record) public recordData;\n\n    // Events\n    event createDoctorLog(address _doctor);\n    event requestDoctorLog(address _doctor, address _patient);\n    event patientAddedByDoctorLog(address _doctor, address _patient);\n    event verifiedRecordLog(address _patient, string _hash);\n\n\n\n    // Set the owner ot this contract just once\n    // Consider use Initializer to make the contract upgradable\n    constructor() {\n        owner = msg.sender;\n    }\n\n    /** Register as Patient. */\n    function registerAsPatient(string memory _name) public returns (bool) {\n\n        Patient p = new Patient(_name);\n\n        patientProfile[msg.sender] = p;\n\n        return true;\n    }\n\n    /** Add a new Doctor. */\n    function addDoctor(address _doctor, string memory _name, string memory _url, string memory _metadataHash) public isOwner() returns (bool) {\n\n        doctorProfile[_doctor] = new Doctor(_name,_url,_metadataHash);\n        // Event\n        emit createDoctorLog(_doctor);\n\n        return true;\n    }\n\n    /** Request a doctor. */\n    function requestDoctor(address _doctor) public returns (bool) {\n\n        require(doctorProfile[_doctor].getOpen(), \"The doctor is closed to new patients\");\n\n        patientProfile[msg.sender].requestDoctor(_doctor);\n\n        // Event\n        emit requestDoctorLog(_doctor, msg.sender);\n\n        return true;\n    }\n\n    function doctorInPatient(address _doctor,address _patient) view public returns (bool){\n\n        require(patientProfile[_patient].isActive(), \"The patient must be activated\");\n\n        return patientProfile[_patient].containsDoctor(_doctor);\n    }\n\n    /** Add a new Patient to the doctor mapping. */\n    function addNewPatient(address _patient) public isDoctor() doctorIsAllowed(_patient)  returns (bool) {\n\n        doctorProfile[msg.sender].addPatient(_patient);\n        // Event\n        emit patientAddedByDoctorLog(msg.sender, _patient);\n\n        return true;\n    }\n\n    function patientInDoctor(address _patient,address _doctor) view public returns (bool){\n\n        require(doctorProfile[_doctor].isActive(), \"The doctor must be activated\");\n\n        return doctorProfile[_doctor].isPatient(_patient);\n    }\n\n    /** Add as a new record. */\n    function addRecord(address _patient, string memory _hash, string memory _encoding) public isDoctor() doctorIsAllowed(_patient) returns (bool) {\n\n        Record memory r = Record(msg.sender,_patient,_hash,_encoding,false);\n        recordData[_hash] = r;\n        // Event\n\n        return true;\n    }\n\n    /** verify a record. */\n    function verifyRecord(string memory _hash) public returns (bool) {\n\n        require(recordData[_hash].patient == msg.sender, \"Just the patient can verify the record\");\n        recordData[_hash].verified = true;\n\n        // Event\n        emit verifiedRecordLog(msg.sender, _hash);\n\n        return true;\n    }\n\n    /** get a specific record. */\n    function getRecord(string memory _hash) view public returns (address,address,string memory,bool) {\n\n        require(recordData[_hash].doctor != address(0), \"The record does not exist\");\n\n        return (recordData[_hash].doctor,\n        recordData[_hash].patient,\n        recordData[_hash].encoding,\n        recordData[_hash].verified);\n    }\n\n    function getPatient(address _patient) view public returns (string memory,bool) {\n\n        require(patientProfile[_patient].active(), \"The patient does not exist or is deactivated\");\n\n        return patientProfile[_patient].getAttrs();\n    }\n\n    function getDoctor(address _doctor) view public returns (string memory,string memory,string memory,bool,bool) {\n\n        require(doctorProfile[_doctor].active(), \"The doctor does not exist or is deactivated\");\n\n        return doctorProfile[_doctor].getAttrs();\n    }\n\n    function switchActiveDoctor() isDoctor() public {\n\n        bool open = !doctorProfile[msg.sender].getOpen();\n\n        doctorProfile[msg.sender].setOpen(open);\n    }\n\n    function addrIsPatient(address _patient) view public returns (bool) {\n\n        return patientProfile[_patient].isActive();\n    }\n\n    function addrIsDoctor(address _doctor) view public returns (bool) {\n\n        return doctorProfile[_doctor].isActive();\n    }\n\n    /** Valid username requirement. */\n    modifier isOwner() {\n        require(owner == msg.sender, \"The caller is not the admin\");\n        _;\n    }\n\n    /** Valid username requirement. */\n    modifier isDoctor() {\n        require(addrIsDoctor(msg.sender), \"The doctor is no activated\");\n        _;\n    }\n\n    /** Valid username requirement. */\n    modifier doctorIsAllowed(address _patient) {\n        require(patientProfile[_patient].containsDoctor(msg.sender), \"The doctor is not allowed\");\n        _;\n    }\n}\n\ncontract Patient {\n\n    string public name;\n    bool public active;\n    mapping(address => bool) public doctorAccess;\n\n    constructor(string memory _name) {\n        name = _name;\n        active = true;\n    }\n\n    function requestDoctor(address _doctor) public {\n        doctorAccess[_doctor] = true;\n    }\n\n    function revokeDoctor(address _doctor) public {\n        doctorAccess[_doctor] = false;\n    }\n\n    function containsDoctor(address _doctor) view public returns (bool){\n        return doctorAccess[_doctor];\n    }\n\n    function isActive() view public returns (bool){\n        return active;\n    }\n\n    function getAttrs() view public returns (string memory,bool){\n        return (name,active);\n    }\n\n}\n\ncontract Doctor {\n\n    string public name;\n    string public url;\n    string public metadataHash;\n    bool public open;\n    bool public active;\n    mapping(address => bool) public patients;\n\n    constructor(string memory _name, string memory _url, string memory _metadataHash) {\n        name = _name;\n        url = _url;\n        metadataHash = _metadataHash;\n        open = false;\n        active = true;\n    }\n\n    function getOpen() public view returns(bool){\n        return open;\n    }\n\n    function setOpen(bool _open) public {\n        open = _open;\n    }\n\n    function isActive() view public returns(bool){\n        return active;\n    }\n\n    function addPatient(address _patient) public{\n        patients[_patient] = true;\n    }\n\n    function isPatient(address _patient) view public returns(bool){\n        return patients[_patient];\n    }\n\n    function deletePatient(address _patient) public{\n        patients[_patient] = false;\n    }\n\n    function getAttrs() view public returns (string memory,string memory,string memory,bool,bool){\n        return (name,url,metadataHash,open,active);\n    }\n}\n",
  "sourcePath": "/Users/jcaso/Documents/ethereum/bharat/poscare/contracts/MedicalRecord.sol",
  "compiler": {
    "name": "solc",
    "version": "0.8.0+commit.c7dfd78e.Emscripten.clang"
  },
  "schemaVersion": "3.3.2",
  "updatedAt": "2021-01-03T12:55:32.556Z",
  "networkType": "ethereum",
  "devdoc": {
    "author": "Jaime Caso",
    "kind": "dev",
    "methods": {},
    "title": "A Electronic Medical Record System",
    "version": 1
  },
  "userdoc": {
    "kind": "user",
    "methods": {
      "addDoctor(address,string,string,string)": {
        "notice": "Add a new Doctor. "
      },
      "addNewPatient(address)": {
        "notice": "Add a new Patient to the doctor mapping. "
      },
      "addRecord(address,string,string)": {
        "notice": "Add as a new record. "
      },
      "getRecord(string)": {
        "notice": "get a specific record. "
      },
      "registerAsPatient(string)": {
        "notice": "Register as Patient. "
      },
      "requestDoctor(address)": {
        "notice": "Request a doctor. "
      },
      "verifyRecord(string)": {
        "notice": "verify a record. "
      }
    },
    "version": 1
  }
}