{
  "contractName": "Patient",
  "abi": [
    {
      "inputs": [
        {
          "internalType": "string",
          "name": "_name",
          "type": "string"
        }
      ],
      "stateMutability": "nonpayable",
      "type": "constructor"
    },
    {
      "inputs": [],
      "name": "active",
      "outputs": [
        {
          "internalType": "bool",
          "name": "",
          "type": "bool"
        }
      ],
      "stateMutability": "view",
      "type": "function",
      "constant": true
    },
    {
      "inputs": [
        {
          "internalType": "address",
          "name": "",
          "type": "address"
        }
      ],
      "name": "doctorAccess",
      "outputs": [
        {
          "internalType": "bool",
          "name": "",
          "type": "bool"
        }
      ],
      "stateMutability": "view",
      "type": "function",
      "constant": true
    },
    {
      "inputs": [],
      "name": "name",
      "outputs": [
        {
          "internalType": "string",
          "name": "",
          "type": "string"
        }
      ],
      "stateMutability": "view",
      "type": "function",
      "constant": true
    },
    {
      "inputs": [
        {
          "internalType": "address",
          "name": "_doctor",
          "type": "address"
        }
      ],
      "name": "requestDoctor",
      "outputs": [],
      "stateMutability": "nonpayable",
      "type": "function"
    },
    {
      "inputs": [
        {
          "internalType": "address",
          "name": "_doctor",
          "type": "address"
        }
      ],
      "name": "revokeDoctor",
      "outputs": [],
      "stateMutability": "nonpayable",
      "type": "function"
    },
    {
      "inputs": [
        {
          "internalType": "address",
          "name": "_doctor",
          "type": "address"
        }
      ],
      "name": "containsDoctor",
      "outputs": [
        {
          "internalType": "bool",
          "name": "",
          "type": "bool"
        }
      ],
      "stateMutability": "view",
      "type": "function",
      "constant": true
    },
    {
      "inputs": [],
      "name": "isActive",
      "outputs": [
        {
          "internalType": "bool",
          "name": "",
          "type": "bool"
        }
      ],
      "stateMutability": "view",
      "type": "function",
      "constant": true
    },
    {
      "inputs": [],
      "name": "getAttrs",
      "outputs": [
        {
          "internalType": "string",
          "name": "",
          "type": "string"
        },
        {
          "internalType": "bool",
          "name": "",
          "type": "bool"
        }
      ],
      "stateMutability": "view",
      "type": "function",
      "constant": true
    }
  ],
  "bytecode": "0x60806040523480156200001157600080fd5b506040516200098338038062000983833981810160405281019062000037919062000193565b80600090805190602001906200004f92919062000071565b5060018060006101000a81548160ff0219169083151502179055505062000309565b8280546200007f9062000275565b90600052602060002090601f016020900481019282620000a35760008555620000ef565b82601f10620000be57805160ff1916838001178555620000ef565b82800160010185558215620000ef579182015b82811115620000ee578251825591602001919060010190620000d1565b5b509050620000fe919062000102565b5090565b5b808211156200011d57600081600090555060010162000103565b5090565b60006200013862000132846200020c565b620001d8565b9050828152602081018484840111156200015157600080fd5b6200015e8482856200023f565b509392505050565b600082601f8301126200017857600080fd5b81516200018a84826020860162000121565b91505092915050565b600060208284031215620001a657600080fd5b600082015167ffffffffffffffff811115620001c157600080fd5b620001cf8482850162000166565b91505092915050565b6000604051905081810181811067ffffffffffffffff82111715620002025762000201620002da565b5b8060405250919050565b600067ffffffffffffffff8211156200022a5762000229620002da565b5b601f19601f8301169050602081019050919050565b60005b838110156200025f57808201518184015260208101905062000242565b838111156200026f576000848401525b50505050565b600060028204905060018216806200028e57607f821691505b60208210811415620002a557620002a4620002ab565b5b50919050565b7f4e487b7100000000000000000000000000000000000000000000000000000000600052602260045260246000fd5b7f4e487b7100000000000000000000000000000000000000000000000000000000600052604160045260246000fd5b61066a80620003196000396000f3fe608060405234801561001057600080fd5b50600436106100885760003560e01c806322f3e2d41161005b57806322f3e2d4146101045780637a7f02cb1461012257806390d7435014610152578063e95472151461016e57610088565b806302fb0c5e1461008d5780630416af27146100ab57806306fdde03146100c757806310f0addf146100e5575b600080fd5b61009561019e565b6040516100a291906104b1565b60405180910390f35b6100c560048036038101906100c09190610440565b6101b1565b005b6100cf61020c565b6040516100dc91906104cc565b60405180910390f35b6100ed61029a565b6040516100fb9291906104ee565b60405180910390f35b61010c610343565b60405161011991906104b1565b60405180910390f35b61013c60048036038101906101379190610440565b61035a565b60405161014991906104b1565b60405180910390f35b61016c60048036038101906101679190610440565b6103b0565b005b61018860048036038101906101839190610440565b61040b565b60405161019591906104b1565b60405180910390f35b600160009054906101000a900460ff1681565b6000600260008373ffffffffffffffffffffffffffffffffffffffff1673ffffffffffffffffffffffffffffffffffffffff16815260200190815260200160002060006101000a81548160ff02191690831515021790555050565b60008054610219906105ab565b80601f0160208091040260200160405190810160405280929190818152602001828054610245906105ab565b80156102925780601f1061026757610100808354040283529160200191610292565b820191906000526020600020905b81548152906001019060200180831161027557829003601f168201915b505050505081565b6060600080600160009054906101000a900460ff168180546102bb906105ab565b80601f01602080910402602001604051908101604052809291908181526020018280546102e7906105ab565b80156103345780601f1061030957610100808354040283529160200191610334565b820191906000526020600020905b81548152906001019060200180831161031757829003601f168201915b50505050509150915091509091565b6000600160009054906101000a900460ff16905090565b6000600260008373ffffffffffffffffffffffffffffffffffffffff1673ffffffffffffffffffffffffffffffffffffffff16815260200190815260200160002060009054906101000a900460ff169050919050565b6001600260008373ffffffffffffffffffffffffffffffffffffffff1673ffffffffffffffffffffffffffffffffffffffff16815260200190815260200160002060006101000a81548160ff02191690831515021790555050565b60026020528060005260406000206000915054906101000a900460ff1681565b60008135905061043a8161061d565b92915050565b60006020828403121561045257600080fd5b60006104608482850161042b565b91505092915050565b6104728161054c565b82525050565b60006104838261051e565b61048d8185610529565b935061049d818560208601610578565b6104a68161060c565b840191505092915050565b60006020820190506104c66000830184610469565b92915050565b600060208201905081810360008301526104e68184610478565b905092915050565b600060408201905081810360008301526105088185610478565b90506105176020830184610469565b9392505050565b600081519050919050565b600082825260208201905092915050565b600061054582610558565b9050919050565b60008115159050919050565b600073ffffffffffffffffffffffffffffffffffffffff82169050919050565b60005b8381101561059657808201518184015260208101905061057b565b838111156105a5576000848401525b50505050565b600060028204905060018216806105c357607f821691505b602082108114156105d7576105d66105dd565b5b50919050565b7f4e487b7100000000000000000000000000000000000000000000000000000000600052602260045260246000fd5b6000601f19601f8301169050919050565b6106268161053a565b811461063157600080fd5b5056fea26469706673582212205e95f9cd6fe28f2b5ae10432dd3163bc7f2c75189a3e7ea018e798ec3686777b64736f6c63430008000033",
  "immutableReferences": {},
  "source": "pragma solidity ^0.8.0;\n\n/// @author Jaime Caso\n/// @title A Electronic Medical Record System\ncontract MedicalRecord{\n\n    address private owner;\n\n    struct Record {\n        address doctor;\n        address patient;\n        string hash;\n        string encoding;\n        bool verified;\n    }\n\n    // Roles\n    mapping(address => Doctor) public doctorProfile;\n    mapping(address => Patient) public patientProfile;\n    // Records\n    mapping(string => Record) public recordData;\n\n    // Events\n    event createDoctorLog(address _doctor);\n    event requestDoctorLog(address _doctor, address _patient);\n    event patientAddedByDoctorLog(address _doctor, address _patient);\n    event verifiedRecordLog(address _patient, string _hash);\n\n\n\n    // Set the owner ot this contract just once\n    // Consider use Initializer to make the contract upgradable\n    constructor() {\n        owner = msg.sender;\n    }\n\n    /** Register as Patient. */\n    function registerAsPatient(string memory _name) public returns (bool) {\n\n        Patient p = new Patient(_name);\n\n        patientProfile[msg.sender] = p;\n\n        return true;\n    }\n\n    /** Add a new Doctor. */\n    function addDoctor(address _doctor, string memory _name, string memory _url, string memory _metadataHash) public isOwner() returns (bool) {\n\n        doctorProfile[_doctor] = new Doctor(_name,_url,_metadataHash);\n        // Event\n        emit createDoctorLog(_doctor);\n\n        return true;\n    }\n\n    /** Request a doctor. */\n    function requestDoctor(address _doctor) public returns (bool) {\n\n        require(doctorProfile[_doctor].getOpen(), \"The doctor is closed to new patients\");\n\n        patientProfile[msg.sender].requestDoctor(_doctor);\n\n        // Event\n        emit requestDoctorLog(_doctor, msg.sender);\n\n        return true;\n    }\n\n    function doctorInPatient(address _doctor,address _patient) view public returns (bool){\n\n        require(patientProfile[_patient].isActive(), \"The patient must be activated\");\n\n        return patientProfile[_patient].containsDoctor(_doctor);\n    }\n\n    /** Add a new Patient to the doctor mapping. */\n    function addNewPatient(address _patient) public isDoctor() doctorIsAllowed(_patient)  returns (bool) {\n\n        doctorProfile[msg.sender].addPatient(_patient);\n        // Event\n        emit patientAddedByDoctorLog(msg.sender, _patient);\n\n        return true;\n    }\n\n    function patientInDoctor(address _patient,address _doctor) view public returns (bool){\n\n        require(doctorProfile[_doctor].isActive(), \"The doctor must be activated\");\n\n        return doctorProfile[_doctor].isPatient(_patient);\n    }\n\n    /** Add as a new record. */\n    function addRecord(address _patient, string memory _hash, string memory _encoding) public isDoctor() doctorIsAllowed(_patient) returns (bool) {\n\n        Record memory r = Record(msg.sender,_patient,_hash,_encoding,false);\n        recordData[_hash] = r;\n        // Event\n\n        return true;\n    }\n\n    /** verify a record. */\n    function verifyRecord(string memory _hash) public returns (bool) {\n\n        require(recordData[_hash].patient == msg.sender, \"Just the patient can verify the record\");\n        recordData[_hash].verified = true;\n\n        // Event\n        emit verifiedRecordLog(msg.sender, _hash);\n\n        return true;\n    }\n\n    /** get a specific record. */\n    function getRecord(string memory _hash) view public returns (address,address,string memory,bool) {\n\n        require(recordData[_hash].doctor != address(0), \"The record does not exist\");\n\n        return (recordData[_hash].doctor,\n        recordData[_hash].patient,\n        recordData[_hash].encoding,\n        recordData[_hash].verified);\n    }\n\n    function getPatient(address _patient) view public returns (string memory,bool) {\n\n        require(patientProfile[_patient].active(), \"The patient does not exist or is deactivated\");\n\n        return patientProfile[_patient].getAttrs();\n    }\n\n    function getDoctor(address _doctor) view public returns (string memory,string memory,string memory,bool,bool) {\n\n        require(doctorProfile[_doctor].active(), \"The doctor does not exist or is deactivated\");\n\n        return doctorProfile[_doctor].getAttrs();\n    }\n\n    function switchActiveDoctor() isDoctor() public {\n\n        bool open = !doctorProfile[msg.sender].getOpen();\n\n        doctorProfile[msg.sender].setOpen(open);\n    }\n\n    function addrIsPatient(address _patient) view public returns (bool) {\n\n        return patientProfile[_patient].isActive();\n    }\n\n    function addrIsDoctor(address _doctor) view public returns (bool) {\n\n        return doctorProfile[_doctor].isActive();\n    }\n\n    /** Valid username requirement. */\n    modifier isOwner() {\n        require(owner == msg.sender, \"The caller is not the admin\");\n        _;\n    }\n\n    /** Valid username requirement. */\n    modifier isDoctor() {\n        require(addrIsDoctor(msg.sender), \"The doctor is no activated\");\n        _;\n    }\n\n    /** Valid username requirement. */\n    modifier doctorIsAllowed(address _patient) {\n        require(patientProfile[_patient].containsDoctor(msg.sender), \"The doctor is not allowed\");\n        _;\n    }\n}\n\ncontract Patient {\n\n    string public name;\n    bool public active;\n    mapping(address => bool) public doctorAccess;\n\n    constructor(string memory _name) {\n        name = _name;\n        active = true;\n    }\n\n    function requestDoctor(address _doctor) public {\n        doctorAccess[_doctor] = true;\n    }\n\n    function revokeDoctor(address _doctor) public {\n        doctorAccess[_doctor] = false;\n    }\n\n    function containsDoctor(address _doctor) view public returns (bool){\n        return doctorAccess[_doctor];\n    }\n\n    function isActive() view public returns (bool){\n        return active;\n    }\n\n    function getAttrs() view public returns (string memory,bool){\n        return (name,active);\n    }\n\n}\n\ncontract Doctor {\n\n    string public name;\n    string public url;\n    string public metadataHash;\n    bool public open;\n    bool public active;\n    mapping(address => bool) public patients;\n\n    constructor(string memory _name, string memory _url, string memory _metadataHash) {\n        name = _name;\n        url = _url;\n        metadataHash = _metadataHash;\n        open = false;\n        active = true;\n    }\n\n    function getOpen() public view returns(bool){\n        return open;\n    }\n\n    function setOpen(bool _open) public {\n        open = _open;\n    }\n\n    function isActive() view public returns(bool){\n        return active;\n    }\n\n    function addPatient(address _patient) public{\n        patients[_patient] = true;\n    }\n\n    function isPatient(address _patient) view public returns(bool){\n        return patients[_patient];\n    }\n\n    function deletePatient(address _patient) public{\n        patients[_patient] = false;\n    }\n\n    function getAttrs() view public returns (string memory,string memory,string memory,bool,bool){\n        return (name,url,metadataHash,open,active);\n    }\n}\n",
  "sourcePath": "/Users/jcaso/Documents/ethereum/bharat/poscare/contracts/MedicalRecord.sol",
  "compiler": {
    "name": "solc",
    "version": "0.8.0+commit.c7dfd78e.Emscripten.clang"
  },
  "schemaVersion": "3.3.2",
  "updatedAt": "2021-01-03T12:55:32.315Z",
  "networkType": "ethereum",
  "devdoc": {
    "kind": "dev",
    "methods": {},
    "version": 1
  },
  "userdoc": {
    "kind": "user",
    "methods": {},
    "version": 1
  }
}